:100000000C9463000C948B000C948B000C948B006C
:100010000C948B000C948B000C948B000C94CD08EA
:100020000C948B000C948B000C948B000C948B0024
:100030000C948B000C948B000C948B000C948B0014
:100040000C9483080C948B000C9473090C944D0948
:100050000C948B000C948B000C948B000C948B00F4
:100060000C94A5090C948B000200000000240027CA
:10007000002A0000000000250028002B00000000DE
:1000800000230026002900040404040404040402DC
:100090000202020202030303030303010204081025
:1000A00020408001020408102001020408102000F2
:1000B0000000080002010000030407000000000027
:1000C00000000000C40A11241FBECFEFD8E0DEBF3D
:1000D000CDBF23E0A2ECB1E001C01D92AB35B20769
:1000E000E1F711E0A0E0B1E0E2E9F0E202C0059042
:1000F0000D92A23CB107D9F710E0C3E6D0E004C0EE
:100100002197FE010E941C0FC236D107C9F70E9439
:100110000C0B0C9447100C94000008950895833044
:1001200081F028F4813099F08230A9F00895873069
:10013000A9F08830C9F08430B1F4809180008F7DBF
:1001400003C0809180008F7780938000089584B5EC
:100150008F7784BD089584B58F7DFBCF8091B000EB
:100160008F778093B00008958091B0008F7DF9CF94
:10017000CF93DF93282F30E0F901E155FF4F8491B1
:10018000F901E556FF4FD491F901E957FF4FC491AA
:10019000CC23A1F081110E948F00EC2FF0E0EE0F34
:1001A000FF1FE358FF4FA591B491EC91ED2381E03F
:1001B00090E009F480E0DF91CF91089580E090E035
:1001C000FACF1F93CF93DF93282F30E0F901E15549
:1001D000FF4F8491F901E556FF4FD491F901E9579A
:1001E000FF4FC491CC23A9F0162F81110E948F00DC
:1001F000EC2FF0E0EE0FFF1FED58FF4FA591B491EB
:100200008FB7F894EC91111108C0D095DE23DC93E0
:100210008FBFDF91CF911F910895DE2BF8CFCF9341
:10022000DF9390E0FC01E556FF4F249189579F4FE3
:10023000FC0184918823D1F090E0880F991FFC0184
:10024000E759FF4FA591B491FC01ED58FF4FC591BF
:10025000D49161110EC09FB7F8948C91E22FE09574
:100260008E238C932881E223E8839FBFDF91CF9177
:1002700008958FB7F894EC91E22BEC938FBFF6CFF3
:100280003FB7F8948091260290912702A09128020E
:10029000B091290226B5A89B05C02F3F19F0019601
:1002A000A11DB11D3FBFBA2FA92F982F8827BC01D0
:1002B000CD01620F711D811D911D42E0660F771FF8
:1002C000881F991F4A95D1F708958F929F92AF92F8
:1002D000BF92CF92DF92EF92FF924B015C010E949E
:1002E00040016B017C010E9440016C197D098E095F
:1002F0009F09683E734081059105A8F321E0821AA9
:100300009108A108B10888EEC80E83E0D81EE11C50
:10031000F11C81149104A104B10429F7FF90EF901E
:10032000DF90CF90BF90AF909F908F900895AF9245
:10033000BF92CF92DF92EF92FF920F931F93CF93D2
:10034000DF936C017B018B01040F151FEB015E0134
:10035000AE18BF08C017D10759F06991D601ED91C9
:10036000FC910190F081E02DC6010995892B79F768
:10037000C501DF91CF911F910F91FF90EF90DF901A
:10038000CF90BF90AF900895FC01538D448D252FE1
:1003900030E0842F90E0821B930B541710F0CF961F
:1003A000089501970895FC01918D828D981761F051
:1003B000A28DAE0FBF2FB11D5D968C91928D9F5F68
:1003C0009F73928F90E008958FEF9FEF0895FC0147
:1003D000918D828D981731F0828DE80FF11D858DFA
:1003E00090E008958FEF9FEF0895FC01918D228D8D
:1003F000892F90E0805C9F4F821B91098F73992712
:10040000089582EA92E00E94F50121E0892B09F427
:1004100020E0822F089580E090E0892B29F00E944F
:10042000010281110C9400000895FC01A48DA80F15
:10043000B92FB11DA35ABF4F2C91848D90E0019626
:100440008F739927848FA689B7892C93A089B18946
:100450008C91837080648C93938D848D981306C0E7
:100460000288F389E02D80818F7D80830895EF924B
:10047000FF920F931F93CF93DF93EC0181E0888F5E
:100480009B8D8C8D98131AC0E889F989808185FF2E
:1004900015C09FB7F894EE89FF896083E889F989D0
:1004A00080818370806480839FBF81E090E0DF91D2
:1004B000CF911F910F91FF90EF900895F62E0B8D25
:1004C00010E00F5F1F4F0F731127E02E8C8D8E11E0
:1004D0000CC00FB607FCFACFE889F989808185FF47
:1004E000F5CFCE010E941502F1CFEB8DEC0FFD2F61
:1004F000F11DE35AFF4FF0829FB7F8940B8FEA8902
:10050000FB8980818062CFCFCF93DF93EC01888D10
:100510008823B9F0AA89BB89E889F9898C9185FD7E
:1005200003C0808186FD0DC00FB607FCF7CF8C910C
:1005300085FFF2CF808185FFEDCFCE010E941502AD
:10054000E9CFDF91CF910895FC01908190539A30CB
:1005500008F090E0818180532AE0929F800D112461
:1005600008952091ED01260F3327331F21323105E5
:10057000ECF420917802FC0190E080E0243069F0F6
:1005800082E00895A091ED012191AC0143535E4FAB
:10059000A40FB52FB11D2C930196861798F3809167
:1005A000ED01680F6093ED0180E0089581E008950A
:1005B0001092780281E0809377021092520261E0FB
:1005C00082E10E94E10061E083E10E94E100E9EB49
:1005D000F0E080818E7F808380818D7F808388E4BE
:1005E0008093B80085E48093BC00089510922F0298
:1005F00010922E0210927F021092A1020E94D80245
:100600008DE890E090932D0280932C028EE890E08C
:1006100090932B0280932A020895CF93DF9391E069
:100620009093CC018823B9F0C091B800D091BA0062
:100630008091BC008A7B8093BC0060E082E10E94D4
:10064000E10060E083E10E94E1000E94D802D093C3
:10065000BA00C093B800DF91CF9108958F929F9216
:10066000AF92BF92CF92DF92EF92FF920F931F93C0
:10067000CF93DF93D091A102D13208F0D7C0182FC9
:10068000C091A0020E9440016B017C018091780220
:1006900081116BC082E080937802109377028FEF14
:1006A0008093760210927502D0937402A0E8B2E0B3
:1006B000E4E5F2E080E0D81391C0109253028091FB
:1006C0005302CC0FC82BC093530280915202813049
:1006D00009F088C0109252020E9440016B017C0117
:1006E000809153028093BB0080917A0290917B02AB
:1006F000A0917C02B0917D02892B8A2B8B2BA1F0DB
:100700000E94400100917A0210917B0220917C02AC
:1007100030917D026C197D098E099F090617170714
:100720002807390708F442C08091BC0083FDD8CF68
:1007300085EC8093BC000E9440016B017C0180919C
:100740007802823009F450C0809176028F3F09F41C
:100750006FC080917602803209F46CC0809176027D
:10076000803309F469C084E026C080917A029091B8
:100770007B02A0917C02B0917D02892B8A2B8B2B6E
:1007800009F484CF0E94400180907A0290907B020D
:10079000A0907C02B0907D026C197D098E099F09A2
:1007A00086169706A806B90608F070CF80917902E0
:1007B0000E940D0385E010927F021092A102109218
:1007C0007E02DF91CF911F910F91FF90EF90DF900C
:1007D000CF90BF90AF909F908F9008959D919193EF
:1007E0008F5F69CF85EEA5CF80917A0290917B02D1
:1007F000A0917C02B0917D02892B8A2B8B2B09F46E
:100800009ECF0E94400100917A0210917B022091BC
:100810007C0230917D026C197D098E099F090617B3
:1008200017072807390708F08ACFC0CF81E0C3CF68
:1008300080E0C1CF82E0BFCF83E0BDCF1F93CF93D5
:10084000DF93EA01122FDC0111968D919C91DC015E
:10085000ED91FC910280F381E02D0995C817D9072D
:1008600029F4812F0E942E0391E0811190E0892FBD
:10087000DF91CF911F910895CF93DF93EC018B818E
:100880008823A1F0888191E090937E028093A0025A
:1008900010927F021092A10281E00E942E0391E04B
:1008A000811190E0892FDF91CF9108950E94F60287
:1008B00081E08B83CE010E943C04982F8111E2CF0E
:1008C000F1CF0895E0912F0280912E02E81730F4C5
:1008D000F0E0E05DFD4F808190E008958FEF9FEFA5
:1008E000089590912F0280912E022FEF3FEF9817DD
:1008F00048F4E92FF0E0E05DFD4F208130E09F5F9C
:1009000090932F02C901089580912E0290912F0299
:10091000891B990B0895CF92DF92EF92FF920F936C
:100920001F93CF93DF937C01CB018A0120917E023C
:10093000222389F0EB016B01C40ED51ECC15DD0519
:1009400069F06991D701ED91FC910190F081E02D62
:10095000C7010995F3CF642F0E94B102C801DF914E
:10096000CF911F910F91FF90EF90DF90CF9008955E
:10097000CF93DF931F92CDB7DEB7698320917E02BC
:100980002223F9F02091A102203258F021E030E03A
:10099000FC013383228390E080E00F90DF91CF91C0
:1009A000089580917F02E82FF0E0E058FD4F998193
:1009B00090838F5F80937F028093A10281E090E01B
:1009C000ECCF61E0CE0101960E94B102F7CFFC01AD
:1009D000248131E030937E022093A00210927F02A6
:1009E0001092A1028385682B8FE393E00E94B804E4
:1009F00081E00C942E03089590E080E008950F9319
:100A00001F93CF93DF93CDB7DEB728970FB6F89437
:100A1000DEBF0FBECDBFDC018E010F5F1F4F86E032
:100A2000F80111928A95E9F715963C9115972AE0FD
:100A3000832F622F0E94EE0E982F880F890F880F48
:100A4000830F8A8314963C911497832F0E94EE0E95
:100A5000982F880F890F880F830F8B8313963C91F3
:100A60001397832F0E94EE0E982F880F890F880FFF
:100A7000830F8C8312963C911297832F0E94EE0E67
:100A8000982F880F890F880F830F8E8311963C91C2
:100A90001197832F0E94EE0E982F880F890F880FD1
:100AA000830F8F833C91832F0E94EE0E982F880F27
:100AB000890F880F830F888780915002909151028F
:100AC000FC01248135812830310580F0208131E01E
:100AD00030937E022093A00210927F021092A10216
:100AE00021E048E050E0B8010E941E0428960FB6AD
:100AF000F894DEBF0FBECDBFDF91CF911F910F9154
:100B000008952F923F924F925F926F927F928F92B1
:100B10009F92AF92BF92CF92DF92EF92FF920F938C
:100B20001F93CF93DF935C011B016A01F12CE12C31
:100B3000D50114968D919C9186010E191F0980177D
:100B4000910708F48C01F501D0810E9440012B012E
:100B50003C0180917802811172C0C02F013208F0EF
:100B6000C0E2F1E0F093780221E0C601801B910B16
:100B7000E816F90608F420E0209377028FEF8093BF
:100B80007602109275028C0F80937402A1E0A093FC
:100B9000530280915302DD0FD82BD09353028091E2
:100BA0005202813009F090C0109252020E9440011E
:100BB0002B013C01809153028093BB0080917A020B
:100BC00090917B02A0917C02B0917D02892B8A2BAF
:100BD0008B2BA1F00E94400120917A0230917B0280
:100BE00040917C0250917D0264197509860997092C
:100BF000261737074807590708F442C08091BC0000
:100C000083FDD8CFB5ECB093BC000E9440012B010E
:100C10003C0180917802813009F45AC080917502BC
:100C20008C1710F4C0917502A4E5B2E0E0E3F2E0A5
:100C300080E08C1751F19D9191938F5FFACF809155
:100C40007A0290917B02A0917C02B0917D02892B67
:100C50008A2B8B2B09F47DCF0E94400120917A02D0
:100C600030917B0240917C0250917D02641975099C
:100C700086099709261737074807590708F069CFEB
:100C8000809179020E940D03C0E010922F02C09360
:100C90002E02C017110609F057C041018E0C9F1C8F
:100CA000E401CE01881999098017910798F5D501BB
:100CB00011968D919C91DC01ED91FC910284F3855C
:100CC000E02D09958993EDCFE5EEE093BC009DCF33
:100CD00080917A0290917B02A0917C02B0917D027A
:100CE000892B8A2B8B2B09F494CF0E9440012091F1
:100CF0007A0230917B0240917C0250917D0264190E
:100D0000750986099709261737074807590708F014
:100D100080CFB6CFE00EF11EEC14FD0408F408CF2E
:100D200081E0DF91CF911F910F91FF90EF90DF90C5
:100D3000CF90BF90AF909F908F907F906F905F907B
:100D40004F903F902F90089580E0EBCFEF92FF926D
:100D50000F931F93CF93DF9300D000D000D01F924A
:100D6000CDB7DEB78C011982E0905002F0905102AD
:100D7000D70114968D919C911597892BE9F08C9150
:100D800091E090937E028093A00210927F021092D5
:100D9000A10220E041E050E0BE016F5F7F4FC7013C
:100DA0000E941E04882341F047E050E0BE016F5FBF
:100DB0007F4FC7010E948105E981EF77FA81FB80AF
:100DC0004D815E818F81282F30E094E03595279505
:100DD0009A95E1F7922F990F990F291B220F280F4F
:100DE000D8012C93852F90E024E0959587952A953E
:100DF000E1F7982F990F990F891B880F850F11968E
:100E00008C931197642F70E034E0759567953A954F
:100E1000E1F7862F880F880F681B660F640F129604
:100E20006C9312974F2D50E064E0559547956A9565
:100E3000E1F7842F880F880F481B440F4F0D13963E
:100E40004C9313972F2F30E074E0359527957A95C2
:100E5000E1F7822F880F880F281B220F2F0F14967F
:100E60002C9314978E2F90E0F4E095958795FA9542
:100E7000E1F7982F990F990F891B880F8E0F159600
:100E80008C93C80127960FB6F894DEBF0FBECDBF76
:100E9000DF91CF911F910F91FF90EF9008950F93E5
:100EA0001F93CF938C01C62F0E94E7046C2F6460C0
:100EB000C8010E94E7046C2F6B7FC8010E94E70401
:100EC00083EC90E00197F1F7CF911F910F91089576
:100ED0000F931F93CF93DF938C01D62FC42F607F86
:100EE000642B0E944F0780E1D89FB00111246C2B26
:100EF000C801DF91CF911F910F910C944F0740E0F3
:100F000061E08BE493E00E9468078BE39FE1019727
:100F1000F1F70895CF93DF93CDB7DEB728970FB6DB
:100F2000F894DEBF0FBECDBF98E0E7E0F1E0DE0150
:100F3000119601900D929A95E1F7909153039817AD
:100F400008F48FEF90E0880F991F21E030E02C0F1C
:100F50003D1F820F931FFC016081606840E08BE4BD
:100F600093E028960FB6F894DEBF0FBECDBFDF9199
:100F7000CF910C94680741E00E94680781E090E0FF
:100F80000895FB0101900020E9F73197AF01461B5E
:100F9000570BDC01ED91FC910280F381E02D099467
:100FA0008F929F92AF92BF920F931F93CF93DF9335
:100FB000CDB7DEB7A1970FB6F894DEBF0FBECDBF99
:100FC00019A2423008F44AE08E010F5D1F4F842EB3
:100FD000912CB12CA12CA50194010E94FA0EE62FB0
:100FE000B901CA01EA3004F5E05DD801EE938D0144
:100FF000232B242B252B79F790E080E0109729F004
:10100000BD018BE493E00E94C107A1960FB6F8944E
:10101000DEBF0FBECDBFDF91CF911F910F91BF906B
:10102000AF909F908F900895E95CDFCF682F70E0BC
:1010300090E080E04AE00C94D007CF92DF92EF92EC
:10104000FF926C01990FEE08FF08F7FE16C041E011
:101050006DE28BE493E00E94680766277727CB0157
:101060006C197D098E099F094AE00E94D0070196FC
:10107000FF90EF90DF90CF9008954AE0C701B6014E
:10108000FF90EF90DF90CF900C94D007BC018BE4E1
:1010900093E00C94C10785ED8093BC0080917A02A7
:1010A00090917B02A0917C02B0917D020796A11DD8
:1010B000B11D23E0B695A795979587952A95D1F709
:1010C0002091BC0024FD03C0109278020895409145
:1010D0007A0250917B0260917C0270917D02452BD7
:1010E000462B472B69F30097A105B10541F02AE291
:1010F0002A95F1F700C00197A109B109E1CF8091CC
:1011000079020C940D031F920F920FB60F921124C7
:101110002F933F938F939F93AF93BF93809122021E
:1011200090912302A0912402B091250230912102D6
:1011300023E0230F2D3758F50196A11DB11D2093F3
:1011400021028093220290932302A0932402B09361
:1011500025028091260290912702A0912802B09149
:1011600029020196A11DB11D8093260290932702AA
:10117000A0932802B0932902BF91AF919F918F91C4
:101180003F912F910F900FBE0F901F90189526E85A
:10119000230F0296A11DB11DD2CF1F920F920FB641
:1011A0000F9211242F933F934F935F936F937F93ED
:1011B0008F939F93AF93BF93EF93FF93809111020F
:1011C00090911202A0911302B0911402892B8A2BE4
:1011D0008B2BC1F1909110028091000089278093A0
:1011E00000008091110290911202A0911302B0911F
:1011F0001402181619061A061B069CF48091110297
:1012000090911202A0911302B09114020197A109CA
:10121000B1098093110290931202A0931302B0932C
:101220001402FF91EF91BF91AF919F918F917F91A8
:101230006F915F914F913F912F910F900FBE0F9043
:101240001F90189580910001E8E6F0E0E4919FEF8F
:1012500090930001E13051F030F0E23069F060E04D
:101260000E94E100DECF10926E00F9CF90916F00E6
:101270009D7F90936F00F3CF909170009D7F90932E
:10128000700091E09093B0009091B100987F9460CD
:101290009093B1001092B300E2CF1F920F920FB65D
:1012A0000F9211242F933F934F935F936F937F93EC
:1012B0008F939F93AF93BF93EF93FF9382EA92E054
:1012C0000E941502FF91EF91BF91AF919F918F9175
:1012D0007F916F915F914F913F912F910F900FBE32
:1012E0000F901F9018951F920F920FB60F92112416
:1012F0002F938F939F93EF93FF93E091B202F0911E
:10130000B3028081E091B802F091B90282FD1BC066
:1013100090818091BB028F5F8F732091BC028217F6
:1013200041F0E091BB02F0E0EE55FD4F958F8093C8
:10133000BB02FF91EF919F918F912F910F900FBE64
:101340000F901F9018958081F4CF1F920F920FB6C7
:101350000F9211242F933F934F935F936F937F933B
:101360008F939F93AF93BF93EF93FF938091B900B7
:10137000887F803609F44AC0F0F5883209F4A7C0A6
:1013800018F5803109F49BC0B8F4882309F4F9C03A
:10139000883009F494C0FF91EF91BF91AF919F9174
:1013A0008F917F916F915F914F913F912F910F900E
:1013B0000FBE0F901F901895883109F488C08032B5
:1013C00051F78093760214C0803409F49DC040F434
:1013D0008033B9F38833F9F68093760285ECB0C098
:1013E000803509F485C0883509F496C0883499F6AB
:1013F0000E944B08D0CF883909F48CC038F5883763
:1014000029F050F4883611F0803729F683E0809374
:10141000780210920F0257C0883809F47BC08039D7
:1014200019F0803809F0B7CF80910F02803208F0B0
:1014300071C0E0910F0281E08E0F80930F028091C6
:10144000BB00F0E0E151FE4F80833DC0803B39F0AE
:10145000E0F4803A09F479C0883A09F09CCF84E03E
:10146000809378021092EE011092ED01E0912C022F
:10147000F0912D0209958091ED0181110FC081E05D
:101480008093ED011092CD0109C0803C09F4A6CFF4
:10149000883C09F4A3CF883B09F07DCFE091EE01B1
:1014A00081E08E0F8093EE01F0E0E353FE4F8081E8
:1014B0008093BB009091EE018091ED0129C0809155
:1014C00053028093BB0085EC8093BC0064CF909165
:1014D000750280917402981758F5E091750281E0C9
:1014E0008E0F80937502F0E0EC5AFD4F8081E9CFBA
:1014F000E091750281E08E0F809375028091BB00B0
:10150000F0E0EC5AFD4F8083909175028091740257
:101510009817C8F285E8D8CFE091750281E08E0F68
:10152000809375028091BB00F0E0EC5AFD4F808300
:101530008091770281115CCF81E08093520284EA2E
:101540008093BC001092780226CF85EC8093BC007B
:101550001092780280910F02803230F4E0910F02F5
:10156000F0E0E151FE4F108260910F0270E0E091D7
:101570002A02F0912B028FEE91E0099510920F0252
:101580000ACF1092760234CFE2EAF2E0138212829E
:1015900088EE93E0A0E0B0E084839583A683B783D0
:1015A00023E131E03183208325EC30E03587248747
:1015B00024EC30E03787268720EC30E0318B208B1D
:1015C00021EC30E0338B228B22EC30E0358B248B06
:1015D00026EC30E0378B268B118E128E138E148EF4
:1015E000EFE3F3E01382128284839583A683B783AB
:1015F00085E291E091838083EBE4F3E01382128231
:1016000087E391E0918380838FE3848380E1818706
:1016100082E0828713860895CF93DF9300D000D0B5
:1016200000D01F92CDB7DEB7789484B5826084BDB8
:1016300084B5816084BD85B5826085BD85B58160D6
:1016400085BD80916E00816080936E001092810054
:10165000809181008260809381008091810081600F
:1016600080938100809180008160809380008091D0
:10167000B10084608093B1008091B000816080935C
:10168000B00080917A00846080937A0080917A0023
:10169000826080937A0080917A00816080937A00E2
:1016A00080917A00806880937A001092C1008091C6
:1016B000500388608093500352E0F52EF09253035C
:1016C00062E370E080E090E00E9465016091560363
:1016D0008BE493E00E94E70468EE73E080E090E022
:1016E0000E94650160E38BE493E00E944F070BE4E6
:1016F00016E4C8010197F1F760E38BE493E00E94E0
:101700004F07C8010197F1F760E38BE493E00E9473
:101710004F0783E592E00197F1F760E28BE493E0F5
:101720000E944F0760915003606240E08BE493E0B9
:101730000E94680784E08093510340E06CE08BE4F2
:1017400093E00E9468070E947F07F092520340E0F6
:1017500066E08BE493E00E94680740E062E08BE47F
:1017600093E00E9468078BE39FE10197F1F788E01F
:101770008093560360E08BE493E00E94E7040E94AC
:101780007F0760E086E00E940F0160E087E00E9432
:101790000F0160E088E00E940F0161E08DE00E948F
:1017A0000F0161E08AE00E940F01E091B202F09126
:1017B000B302F082E091AE02F091AF021082E091AC
:1017C000B002F091B1028FEC80831092BA02E091E6
:1017D000B602F091B70286E08083E091B402F09106
:1017E000B502808180618083E091B402F091B502FE
:1017F000808188608083E091B402F091B50280819D
:1018000080688083E091B402F091B50280818F7D81
:1018100080830E94F60280915002909151020097BD
:1018200011F00E94BE0F86E090E00E94220F8C0112
:1018300088E6F80180838FE393E0928381831382AB
:1018400080E290E0958384831093510200935002CC
:101850000E94F602FF24F394F801F382C8010E946B
:101860003C041F828091500290915102FC0124811E
:101870003581232B89F02081F0927E022093A002F3
:1018800010927F021092A10221E041E050E0BE01DF
:10189000695F7F4F0E941E0441E050E0BE016F5F10
:1018A0007F4F80915002909151020E948105898161
:1018B00090E0880F892F881F990B892B59F16FE3CE
:1018C00071E082EA92E00E94C10763E571E082EA7A
:1018D00092E00E94C1078FE591E00E94A4028983F3
:1018E0008CE08A838AE591E00E94A4028B8382E6E1
:1018F00091E00E94A4028C8385E691E00E94A402FC
:101900008D8388E691E00E94A4028E83CE01019629
:101910000E94FF0400E010E087E1E82EF12C9BE339
:10192000C92ED12C2CE0A22EB12C3FE1832E912C7C
:1019300086E00E94B800892B49F080911F029091A7
:10194000200201969093200280931F0280911F0233
:1019500090912002892B09F07DC0CE0101960E9452
:10196000A60681E00E948A078BE691E00E94460865
:101970008C818A3020F489E691E00E9446088C81AF
:101980000E9416088C8190E090931C0280931B02A9
:1019900082E891E00E9446088D818A3020F489E631
:1019A00091E00E9446088D810E9416088D8190E08A
:1019B00090931E0280931D0282E891E00E944608E7
:1019C0008E818A3020F489E691E00E9446088E815B
:1019D0000E94160880E00E948A0781E791E00E9439
:1019E00046088B818A3020F489E691E00E944608FF
:1019F0008B810E9416088B8190E090931A0280934D
:101A0000190288E791E00E9446088A818A3020F412
:101A100089E691E00E9446088A810E9416088A8120
:101A200090E0909318028093170288E791E00E945B
:101A30004608698170E06053784F90E080E04AE0AA
:101A40000E94D007898190E08053984F90931602AE
:101A50008093150280911F02909120020197E9F571
:101A60000E947F07CE0101960E94A60687E00E9491
:101A7000B800019761F480911B0290911C0287319C
:101A8000910509F079C110921C0210921B0288E0A6
:101A90000E94B800019759F480911B0290911C029A
:101AA000009709F06FC1F0921C02E0921B0280E0E7
:101AB0000E948A078AE791E00E94460881E00E941E
:101AC0008A0780911B0290911C020E941D0868ECFD
:101AD00070E080E090E00E94650180911F0290918B
:101AE00020020297C9F50E947F0787E00E94B80094
:101AF000019761F480911D0290911E028B33910534
:101B000009F046C110921E0210921D0288E00E9448
:101B1000B800019759F480911D0290911E02009720
:101B200009F03CC1D0921E02C0921D0280E00E94CA
:101B30008A0784E891E00E94460881E00E948A07B3
:101B400080911D0290911E020E941D0868EC70E0B9
:101B500080E090E00E94650180911F029091200238
:101B60000397A1F50E947F0787E00E94B8000197C4
:101B700049F48091150290911602019690931602F5
:101B80008093150288E00E94B800019749F4809183
:101B900015029091160201979093160280931502F8
:101BA00080E00E948A0781E991E00E94460881E076
:101BB0000E948A0780911502909116020E941D08CA
:101BC00068EC70E080E090E00E94650180911F0267
:101BD000909120020497D9F50E947F0787E00E9428
:101BE000B8008130910561F42091170230911802FC
:101BF0002C30310509F0D8C0909318028093170259
:101C000088E00E94B800019761F4809117029091DA
:101C100018028130910509F0CEC0B0921802A0924E
:101C2000170280E00E948A078BE991E00E94460833
:101C300081E00E948A0780911702909118020E9409
:101C40001D0868EC70E080E090E00E9465018091E2
:101C50001F02909120020597D9F50E947F0787E027
:101C60000E94B8008130910561F4209119023091F1
:101C70001A022F31310509F0A4C090931A02809303
:101C8000190288E00E94B800019761F4809119025E
:101C900090911A028130910509F09AC090921A022F
:101CA0008092190280E00E948A0786EA91E00E94F1
:101CB000460881E00E948A078091190290911A02D9
:101CC0000E941D0868EC70E080E090E00E946501D1
:101CD00080911F02909120020697E1F50E947F07F4
:101CE00080E00E948A078FEA91E00E94460881E026
:101CF0000E948A0789EB91E00E94460820911D020C
:101D000030911B02409119025091170280911502E7
:101D100090911602803DF7E09F0710F0805D97409C
:101D200089835A834B833C832D831E82CE01019687
:101D30000E94FF0468EC70E080E090E00E94650182
:101D400064EF71E080E090E00E9465011092200253
:101D500010921F0264E670E080E090E00E9465014E
:101D60000115110509F4E4CD0E940102882309F44C
:101D7000DFCD0E940000DCCD019690931C02809381
:101D80001B0285CE019790931C0280931B028FCE7D
:101D9000019690931E0280931D02B8CE01979093F6
:101DA0001E0280931D02C2CE2F5F3F4F3093180258
:101DB0002093170225CF0197909318028093170262
:101DC00030CF2F5F3F4F30931A022093190259CF23
:101DD000019790931A028093190264CF991B79E0BE
:101DE00004C0991F961708F0961B881F7A95C9F7AB
:101DF00080950895A1E21A2EAA1BBB1BFD010DC000
:101E0000AA1FBB1FEE1FFF1FA217B307E407F507AA
:101E100020F0A21BB30BE40BF50B661F771F881F86
:101E2000991F1A9469F760957095809590959B011C
:101E3000AC01BD01CF010895EE0FFF1F0590F49195
:101E4000E02D09940F931F93CF93DF938230910578
:101E500010F482E090E0E0915903F0915A0330E0F1
:101E600020E0B0E0A0E0309799F42115310509F4A5
:101E70004AC0281B390B24303105D8F58A819B8153
:101E80006115710589F1FB0193838283FE0111C005
:101E9000408151810281138148175907E0F04817AA
:101EA000590799F4109761F012960C9312971396B4
:101EB0001C933296CF01DF91CF911F910F9108951E
:101EC0000093590310935A03F4CF2115310551F0B3
:101ED0004217530738F0A901DB019A01BD01DF0168
:101EE000F801C1CFEF01F9CF90935A0380935903C2
:101EF000CDCFFE01E20FF31F819391932250310960
:101F000039832883D7CF2091570330915803232B4F
:101F100041F4209103013091040130935803209340
:101F2000570320910101309102012115310541F43F
:101F30002DB73EB74091050150910601241B350B8A
:101F4000E0915703F0915803E217F307A0F42E1B1A
:101F50003F0B2817390778F0AC014E5F5F4F24170D
:101F6000350748F04E0F5F1F5093580340935703B7
:101F7000819391939FCFF0E0E0E09CCFCF93DF93EC
:101F80000097E9F0FC01329713821282A091590365
:101F9000B0915A03ED0130E020E01097A1F42081C8
:101FA0003181820F931F20915703309158032817D6
:101FB000390709F061C0F0935803E0935703DF91AC
:101FC000CF910895EA01CE17DF07E8F54A815B81DA
:101FD0009E0141155105B1F7E901FB83EA8349915F
:101FE0005991C40FD51FEC17FD0761F480819181D1
:101FF0000296840F951FE9019983888382819381DA
:102000009B838A83F0E0E0E012968D919C91139778
:102010000097B9F52D913C911197CD010296820F51
:10202000931F20915703309158032817390739F629
:10203000309751F510925A0310925903B0935803F8
:10204000A0935703BCCFD383C28340815181840FB7
:10205000951FC817D90761F44E5F5F4F888199813A
:10206000480F591F518340838A819B8193838283C8
:102070002115310509F0B0CFF0935A03E0935903CD
:102080009ECFFD01DC01C0CF13821282D7CFF8941E
:02209000FFCF80
:10209200FF00005B038000000040001400540000B9
:1020A20000000037029701C4018402F501D301E761
:1020B2000100000000B8048B04FC04610484047174
:1020C20004620400000000BB079701FC04FB0452F9
:1020D2005443206973204E4F542072756E6E696EA0
:1020E2006721000D0A004465632032382032303205
:1020F200330031343A32303A323000486F75723A36
:1021020000446174653A20002F005365742074699D
:102112006D653A00536574204D696E757465733A46
:102122000053657420596561723A00536574204DFD
:102132006F6E74683A00536574204461793A0053B3
:102142004156494E4720494E0050524F475245533F
:02215200530038
:00000001FF
